{
  "address": "0xe7f1725E7734CE288F8367e1Bb143E90bb3F0512",
  "abi": [
    {
      "inputs": [
        {
          "internalType": "address",
          "name": "priceFeedAddress_",
          "type": "address"
        }
      ],
      "stateMutability": "nonpayable",
      "type": "constructor"
    },
    {
      "stateMutability": "payable",
      "type": "fallback"
    },
    {
      "inputs": [],
      "name": "MINIMUM_USD",
      "outputs": [
        {
          "internalType": "uint256",
          "name": "",
          "type": "uint256"
        }
      ],
      "stateMutability": "view",
      "type": "function"
    },
    {
      "inputs": [],
      "name": "fund",
      "outputs": [],
      "stateMutability": "payable",
      "type": "function"
    },
    {
      "inputs": [
        {
          "internalType": "uint256",
          "name": "index_",
          "type": "uint256"
        }
      ],
      "name": "getFunder",
      "outputs": [
        {
          "internalType": "address",
          "name": "",
          "type": "address"
        }
      ],
      "stateMutability": "view",
      "type": "function"
    },
    {
      "inputs": [
        {
          "internalType": "address",
          "name": "funder_",
          "type": "address"
        }
      ],
      "name": "getFunderToAmount",
      "outputs": [
        {
          "internalType": "uint256",
          "name": "",
          "type": "uint256"
        }
      ],
      "stateMutability": "view",
      "type": "function"
    },
    {
      "inputs": [],
      "name": "getOwner",
      "outputs": [
        {
          "internalType": "address",
          "name": "",
          "type": "address"
        }
      ],
      "stateMutability": "view",
      "type": "function"
    },
    {
      "inputs": [],
      "name": "getPriceFeed",
      "outputs": [
        {
          "internalType": "contract AggregatorV3Interface",
          "name": "",
          "type": "address"
        }
      ],
      "stateMutability": "view",
      "type": "function"
    },
    {
      "inputs": [],
      "name": "getVersion",
      "outputs": [
        {
          "internalType": "uint256",
          "name": "",
          "type": "uint256"
        }
      ],
      "stateMutability": "view",
      "type": "function"
    },
    {
      "inputs": [],
      "name": "i_owner",
      "outputs": [
        {
          "internalType": "address",
          "name": "",
          "type": "address"
        }
      ],
      "stateMutability": "view",
      "type": "function"
    },
    {
      "inputs": [],
      "name": "s_priceFeed",
      "outputs": [
        {
          "internalType": "contract AggregatorV3Interface",
          "name": "",
          "type": "address"
        }
      ],
      "stateMutability": "view",
      "type": "function"
    },
    {
      "inputs": [],
      "name": "withdraw",
      "outputs": [],
      "stateMutability": "nonpayable",
      "type": "function"
    },
    {
      "stateMutability": "payable",
      "type": "receive"
    }
  ],
  "transactionHash": "0x3f77c2878e7998a5c127f9f6aea4316a0c209e3e325601ac01fe6f3084c59d16",
  "args": [
    "0x5FbDB2315678afecb367f032d93F642f64180aa3"
  ],
  "numDeployments": 1,
  "solcInputHash": "2062b58ca1ef8acbdc3f06519c65f469",
  "bytecode": "0x60806040523480156200001157600080fd5b50604051620011173803806200111783398181016040528101906200003791906200012a565b33600260006101000a81548173ffffffffffffffffffffffffffffffffffffffff021916908373ffffffffffffffffffffffffffffffffffffffff16021790555080600360006101000a81548173ffffffffffffffffffffffffffffffffffffffff021916908373ffffffffffffffffffffffffffffffffffffffff160217905550506200015c565b600080fd5b600073ffffffffffffffffffffffffffffffffffffffff82169050919050565b6000620000f282620000c5565b9050919050565b6200010481620000e5565b81146200011057600080fd5b50565b6000815190506200012481620000f9565b92915050565b600060208284031215620001435762000142620000c0565b5b6000620001538482850162000113565b91505092915050565b610fab806200016c6000396000f3fe6080604052600436106100955760003560e01c80639c5e5e0e116100595780639c5e5e0e146101715780639e87a5cd146101ae578063b60d4288146101d9578063d7b4750c146101e3578063dba6335f14610220576100a4565b80630d8e6e2c146100ae5780630ec3b027146100d95780633ccfd60b146101045780636b69a5921461011b578063893d20e814610146576100a4565b366100a4576100a261024b565b005b6100ac61024b565b005b3480156100ba57600080fd5b506100c361037e565b6040516100d09190610922565b60405180910390f35b3480156100e557600080fd5b506100ee610416565b6040516100fb91906109bc565b60405180910390f35b34801561011057600080fd5b5061011961043c565b005b34801561012757600080fd5b50610130610686565b60405161013d9190610922565b60405180910390f35b34801561015257600080fd5b5061015b61068b565b60405161016891906109f8565b60405180910390f35b34801561017d57600080fd5b5061019860048036038101906101939190610a44565b6106b5565b6040516101a59190610922565b60405180910390f35b3480156101ba57600080fd5b506101c36106fe565b6040516101d091906109bc565b60405180910390f35b6101e161024b565b005b3480156101ef57600080fd5b5061020a60048036038101906102059190610a9d565b610728565b60405161021791906109f8565b60405180910390f35b34801561022c57600080fd5b5061023561076f565b60405161024291906109f8565b60405180910390f35b6005610282600360009054906101000a900473ffffffffffffffffffffffffffffffffffffffff163461079590919063ffffffff16565b10156102c3576040517f08c379a00000000000000000000000000000000000000000000000000000000081526004016102ba90610b27565b60405180910390fd5b6000339080600181540180825580915050600190039060005260206000200160009091909190916101000a81548173ffffffffffffffffffffffffffffffffffffffff021916908373ffffffffffffffffffffffffffffffffffffffff16021790555034600160003373ffffffffffffffffffffffffffffffffffffffff1673ffffffffffffffffffffffffffffffffffffffff16815260200190815260200160002060008282546103759190610b76565b92505081905550565b6000600360009054906101000a900473ffffffffffffffffffffffffffffffffffffffff1673ffffffffffffffffffffffffffffffffffffffff166354fd4d506040518163ffffffff1660e01b8152600401602060405180830381865afa1580156103ed573d6000803e3d6000fd5b505050506040513d601f19601f820116820180604052508101906104119190610bbf565b905090565b600360009054906101000a900473ffffffffffffffffffffffffffffffffffffffff1681565b600260009054906101000a900473ffffffffffffffffffffffffffffffffffffffff1673ffffffffffffffffffffffffffffffffffffffff163373ffffffffffffffffffffffffffffffffffffffff16146104cc576040517f08c379a00000000000000000000000000000000000000000000000000000000081526004016104c390610c38565b60405180910390fd5b60008080549050905060005b818110156105755760008082815481106104f5576104f4610c58565b5b9060005260206000200160009054906101000a900473ffffffffffffffffffffffffffffffffffffffff1690506000600160008373ffffffffffffffffffffffffffffffffffffffff1673ffffffffffffffffffffffffffffffffffffffff168152602001908152602001600020819055505080806001019150506104d8565b50600067ffffffffffffffff81111561059157610590610c87565b5b6040519080825280602002602001820160405280156105bf5781602001602082028036833780820191505090505b50600090805190602001906105d5929190610862565b5060003373ffffffffffffffffffffffffffffffffffffffff16476040516105fc90610ce7565b60006040518083038185875af1925050503d8060008114610639576040519150601f19603f3d011682016040523d82523d6000602084013e61063e565b606091505b5050905080610682576040517f08c379a000000000000000000000000000000000000000000000000000000000815260040161067990610d48565b60405180910390fd5b5050565b600581565b6000600260009054906101000a900473ffffffffffffffffffffffffffffffffffffffff16905090565b6000600160008373ffffffffffffffffffffffffffffffffffffffff1673ffffffffffffffffffffffffffffffffffffffff168152602001908152602001600020549050919050565b6000600360009054906101000a900473ffffffffffffffffffffffffffffffffffffffff16905090565b600080828154811061073d5761073c610c58565b5b9060005260206000200160009054906101000a900473ffffffffffffffffffffffffffffffffffffffff169050919050565b600260009054906101000a900473ffffffffffffffffffffffffffffffffffffffff1681565b6000806107a1836107d1565b90506000670de0b6b3a764000085836107ba9190610d68565b6107c49190610dd9565b9050809250505092915050565b6000808273ffffffffffffffffffffffffffffffffffffffff1663feaf968c6040518163ffffffff1660e01b815260040160a060405180830381865afa15801561081f573d6000803e3d6000fd5b505050506040513d601f19601f820116820180604052508101906108439190610e82565b5050509150506402540be4008161085a9190610efd565b915050919050565b8280548282559060005260206000209081019282156108db579160200282015b828111156108da5782518260006101000a81548173ffffffffffffffffffffffffffffffffffffffff021916908373ffffffffffffffffffffffffffffffffffffffff16021790555091602001919060010190610882565b5b5090506108e891906108ec565b5090565b5b808211156109055760008160009055506001016108ed565b5090565b6000819050919050565b61091c81610909565b82525050565b60006020820190506109376000830184610913565b92915050565b600073ffffffffffffffffffffffffffffffffffffffff82169050919050565b6000819050919050565b600061098261097d6109788461093d565b61095d565b61093d565b9050919050565b600061099482610967565b9050919050565b60006109a682610989565b9050919050565b6109b68161099b565b82525050565b60006020820190506109d160008301846109ad565b92915050565b60006109e28261093d565b9050919050565b6109f2816109d7565b82525050565b6000602082019050610a0d60008301846109e9565b92915050565b600080fd5b610a21816109d7565b8114610a2c57600080fd5b50565b600081359050610a3e81610a18565b92915050565b600060208284031215610a5a57610a59610a13565b5b6000610a6884828501610a2f565b91505092915050565b610a7a81610909565b8114610a8557600080fd5b50565b600081359050610a9781610a71565b92915050565b600060208284031215610ab357610ab2610a13565b5b6000610ac184828501610a88565b91505092915050565b600082825260208201905092915050565b7f6469646e60742073656e6420656e6f7567682066756e64730000000000000000600082015250565b6000610b11601883610aca565b9150610b1c82610adb565b602082019050919050565b60006020820190508181036000830152610b4081610b04565b9050919050565b7f4e487b7100000000000000000000000000000000000000000000000000000000600052601160045260246000fd5b6000610b8182610909565b9150610b8c83610909565b9250828201905080821115610ba457610ba3610b47565b5b92915050565b600081519050610bb981610a71565b92915050565b600060208284031215610bd557610bd4610a13565b5b6000610be384828501610baa565b91505092915050565b7f4e6f74206f776e65720000000000000000000000000000000000000000000000600082015250565b6000610c22600983610aca565b9150610c2d82610bec565b602082019050919050565b60006020820190508181036000830152610c5181610c15565b9050919050565b7f4e487b7100000000000000000000000000000000000000000000000000000000600052603260045260246000fd5b7f4e487b7100000000000000000000000000000000000000000000000000000000600052604160045260246000fd5b600081905092915050565b50565b6000610cd1600083610cb6565b9150610cdc82610cc1565b600082019050919050565b6000610cf282610cc4565b9150819050919050565b7f43616c6c206661696c6564000000000000000000000000000000000000000000600082015250565b6000610d32600b83610aca565b9150610d3d82610cfc565b602082019050919050565b60006020820190508181036000830152610d6181610d25565b9050919050565b6000610d7382610909565b9150610d7e83610909565b9250828202610d8c81610909565b91508282048414831517610da357610da2610b47565b5b5092915050565b7f4e487b7100000000000000000000000000000000000000000000000000000000600052601260045260246000fd5b6000610de482610909565b9150610def83610909565b925082610dff57610dfe610daa565b5b828204905092915050565b600069ffffffffffffffffffff82169050919050565b610e2981610e0a565b8114610e3457600080fd5b50565b600081519050610e4681610e20565b92915050565b6000819050919050565b610e5f81610e4c565b8114610e6a57600080fd5b50565b600081519050610e7c81610e56565b92915050565b600080600080600060a08688031215610e9e57610e9d610a13565b5b6000610eac88828901610e37565b9550506020610ebd88828901610e6d565b9450506040610ece88828901610baa565b9350506060610edf88828901610baa565b9250506080610ef088828901610e37565b9150509295509295909350565b6000610f0882610e4c565b9150610f1383610e4c565b9250828202610f2181610e4c565b91507f80000000000000000000000000000000000000000000000000000000000000008414600084121615610f5957610f58610b47565b5b8282058414831517610f6e57610f6d610b47565b5b509291505056fea264697066735822122094d68c78be263a2cf8ed375b8679942b500a9069f485372a8a79e6ace8c5a30e64736f6c63430008180033",
  "devdoc": {
    "kind": "dev",
    "methods": {},
    "version": 1
  },
  "userdoc": {
    "kind": "user",
    "methods": {},
    "version": 1
  },
  "storageLayout": {
    "storage": [
      {
        "astId": 60,
        "contract": "contracts/FundMe.sol:FundMe",
        "label": "s_funders",
        "offset": 0,
        "slot": "0",
        "type": "t_array(t_address)dyn_storage"
      },
      {
        "astId": 64,
        "contract": "contracts/FundMe.sol:FundMe",
        "label": "s_funderToAmount",
        "offset": 0,
        "slot": "1",
        "type": "t_mapping(t_address,t_uint256)"
      },
      {
        "astId": 66,
        "contract": "contracts/FundMe.sol:FundMe",
        "label": "i_owner",
        "offset": 0,
        "slot": "2",
        "type": "t_address"
      },
      {
        "astId": 69,
        "contract": "contracts/FundMe.sol:FundMe",
        "label": "s_priceFeed",
        "offset": 0,
        "slot": "3",
        "type": "t_contract(AggregatorV3Interface)45"
      }
    ],
    "types": {
      "t_address": {
        "encoding": "inplace",
        "label": "address",
        "numberOfBytes": "20"
      },
      "t_array(t_address)dyn_storage": {
        "base": "t_address",
        "encoding": "dynamic_array",
        "label": "address[]",
        "numberOfBytes": "32"
      },
      "t_contract(AggregatorV3Interface)45": {
        "encoding": "inplace",
        "label": "contract AggregatorV3Interface",
        "numberOfBytes": "20"
      },
      "t_mapping(t_address,t_uint256)": {
        "encoding": "mapping",
        "key": "t_address",
        "label": "mapping(address => uint256)",
        "numberOfBytes": "32",
        "value": "t_uint256"
      },
      "t_uint256": {
        "encoding": "inplace",
        "label": "uint256",
        "numberOfBytes": "32"
      }
    }
  }
}